:10000000801F0020112700001D710000FD26000048
:10001000FD260000FD260000FD2600000000000077
:10002000000000000000000000000000892800001F
:10003000FD2600000000000021280000FD26000031
:10004000512A0000512A0000512A0000512A0000C4
:10005000512A0000512A0000512A0000512A0000B4
:10006000512A0000512A0000512A0000512A0000A4
:10007000512A0000512A0000512A0000512A000094
:10008000512A0000512A0000512A0000512A000084
:10009000512A0000512A0000512A0000512A000074
:1000A000512A0000512A0000512A0000512A000064
:1000B000512A0000512A0000512A0000512A000054
:1000C000512A0000512A0000512A0000512A000044
:0C00D000512A0000512A0000512A0000B3
:1000DC0053B94AB9002908BF00281CBF4FF0FF31A3
:1000EC004FF0FF3000F00CB8ADF1080C6DE904CE08
:1000FC0000F010F8DDF804E0DDE9022304B07047ED
:10010C00704700BF034613F8012B002AFBD1181AC5
:10011C00013870472DE9F04786468C460846089E04
:10012C00154674461946002B40F0C2808542B2FA3F
:10013C0082F245D94AB1C2F1200300FA02FC2EFA30
:10014C0003F3954043EA0C0C94404FEA154EA8B2C9
:10015C00BCFBFEF8230C0EFB18CC08FB00F943EAA1
:10016C000C43994528D9EB1808F1FF3704D299456F
:10017C0002D9A8F102072B44A3EB0903A4B2B3FBE9
:10018C00FEFC0EFB1C330CFB00F044EA0344A042C3
:10019C0014D92C190CF1FF3304D2A04202D9ACF1C2
:1001AC0002032C44241A43EA07401EB1D440002316
:1001BC0034607360BDE8F0874746DDE76346F1E7DE
:1001CC0092BB431B01214FEA154EAFB2B3FBFEFCB1
:1001DC00200C0EFB1C330CFB07F840EA034398453C
:1001EC0062D9EB180CF1FF3004D2984502D9ACF16E
:1001FC0002002B44A3EB0803A4B2B3FBFEFC0EFBE2
:10020C001C330CFB07F744EA0344A7424ED92C19C4
:10021C000CF1FF3304D2A74202D9ACF102032C44F7
:10022C00E41B43EA0040C0E7C2F1200320FA03F1CB
:10023C00954090402EFA03F303434FEA154EAFB2AC
:10024C00B1FBFEFC0EFB1C10190C0CFB07F841EA71
:10025C000041884504FA02F422D969180CF1FF30E8
:10026C0004D2884502D9ACF102002944A1EB080163
:10027C009BB2B1FBFEFC0EFB1C110CFB07F743EA17
:10028C0001439F420ED9EB180CF1FF3104D29F426F
:10029C0002D9ACF102012B44DB1B41EA004192E78D
:1002AC006046E3E76146F7E76046A3E76346B7E7D6
:1002BC00834206D916B9002108467BE7C6E900E05F
:1002CC00F9E7B3FA83F78FB9834201D3724508D8A3
:1002DC00BEEB020460EB030301209C461EB9002117
:1002EC0068E73846FAE7C6E9004CF8E7C7F1200C96
:1002FC00BB4022FA0CF41C432EFA0CF120FA0CF33E
:10030C00B84001434FEA14490EFA07F5B3FBF9F86C
:10031C001FFA84FE09FB18300B0C08FB0EFA43EA9B
:10032C0000439A4502FA07F240D9E31808F1FF306E
:10033C0004D29A4502D9A8F102002344A3EB0A0384
:10034C0089B2B3FBF9F809FB183308FB0EFE41EA3E
:10035C0003418E452CD9611808F1FF3304D28E4528
:10036C0002D9A8F10203214443EA0040A0FB029801
:10037C00A1EB0E014145CE46434602D306D14D4575
:10038C0004D2B9EB020E68EB04030138002EA6D0A0
:10039C00B5EB0E0261EB030101FA0CFC22FA07F338
:1003AC004CEA0303F940C6E9003198E74046C5E73B
:1003BC004346D9E738B5836805699C697CB112F46A
:1003CC00000F06D02D6801238B401D4201D082F016
:1003DC00C062044B134002F0B072A04738BD6FF0FE
:1003EC005700FBE74000000630B583B00A230B4AE8
:1003FC0003210B4806F053FD01252C4609E004FBB4
:10040C0005F500952346074A0321054806F052FDE1
:10041C0001340A2CF3DD03B030BD00BF789000002E
:10042C00AC8F0000A890000090B587B000AF4F4B88
:10043C0007F1080C0FCBACE807008CF800304C4CE3
:10044C004C4A0321204606F020FD02234A4A032190
:10045C00204606F024FD494A0221204606F015FDEF
:10046C00474A0121204606F010FD6C4600233B71E3
:10047C0002237B7188B0EC461CF1100214D00E20C4
:10048C0022B1042802DD3F4BCCF8143000233B7022
:10049C0002237B70AAB1082802DD3B4BCCF8183044
:1004AC000CF11C0300210AE06FF00040E8E701F1B9
:1004BC00180EBE441EF818EC03F801EB01310129AB
:1004CC00F5D90D282DDD0E234AB1032139710021F8
:1004DC007971B9710121F9717868CCF8100000219B
:1004EC006FF300016FF341016FF382016FF3C501EC
:1004FC00032060F38811C3F30A0363F353210D2324
:10050C0063F31F5107F10803194801F005F9A546DB
:10051C001E4808F033F938B94FF0FF301C37BD4690
:10052C0090BD6FF01B03CFE74FF4D011184805F0C6
:10053C0090FD0028F0DB4FF48031164805F089FD62
:10054C000028E9DB114C4FF0B8620D212046FFF773
:10055C0031FF1149114B4B604FF400538B60204617
:10056C0005F082FD0E4805F089FDFBE76090000068
:10057C00AC8F0000C4900000E4900000F0900000EC
:10058C00109100003091000034910000008E0000AA
:10059C005091000058910000E80C0020F503000079
:1005AC00C02709002DE9F04F91B005920293134634
:1005BC0002F004020092C3F3C20210F00303019391
:1005CC0040F02B8280468A460132041D00284FD011
:1005DC00B8F1000F05D0A4EB08030433534500F227
:1005EC001F82029B5D1E019B0493069303930026BE
:1005FC004FF0FF3B0427B946B8F1000F01D0029B26
:10060C002360531E0793002A40F35D81059B13F072
:10061C00020228D00120A4EB08018B081AB1B1F515
:10062C00007F80F0038203990F2900F20282B8F157
:10063C00000F00F06081DBB201F140026A4402F865
:10064C00103C02F820BC002800F0518163F07F03BD
:10065C0001F140026A4402F8103C049B01330493FC
:10066C00039B0133039304340022CC4640463DE007
:10067C0001F0070A5444CAF1080AA9E7002634E03D
:10068C00002632E0002630E00827BC462DE0252964
:10069C002BD10BF1010B01260427BC4625E0472981
:1006AC00EED82A2914D32A39C9B24FF0010E0EFA0A
:1006BC0001F14FF6DA7E11EA0E0F16D111F0625FDE
:1006CC0040F0C08011F0010F40F08C8000260CE04F
:1006DC00252903D10BF1FF3B002606E001D90026AA
:1006EC0003E0202901D02329CCD11D466B1C69784D
:1006FC00002900F01981002EC9D07A29BED84C29C6
:10070C00CDD34C392E2961D80FF2040E5EF821F0AE
:10071C00F7060000D9070000D9070000D907000030
:10072C00D9070000D9070000D9070000D90700003D
:10073C00D9070000D9070000D9070000D90700002D
:10074C00E9070000D9070000D9070000D90700000D
:10075C00D9070000D9070000D9070000D90700000D
:10076C00D907000051080000D9070000E907000074
:10077C00E907000051080000510800005108000072
:10078C00F7060000E907000095060000D9070000F5
:10079C00F7060000D9070000AD080000E9070000CB
:1007AC00AD080000D9070000D9070000B50800000B
:1007BC00E3070000E9070000D9070000D907000093
:1007CC00E9070000D9070000DD07000000268CE7D0
:1007DC000427BC4689E70427BC4686E729786C29A0
:1007EC0024D000263C44013CB4FBF7F407FB04F492
:1007FC0020B1211A6144514500F21581002A58D1CB
:10080C00BCF1040F00F08880BCF1080F40F014819B
:10081C001A99073121F0070101F108051A95D1E960
:10082C00008908B1C4E9008908345EE713F8021C9A
:10083C006C2903D000260427BC46D3E700260827E2
:10084C00BC46CFE729784C291AD01A99073121F0E8
:10085C00070101F108061A96D1E90067073424F064
:10086C00070440B1211A0831514513D829784C2975
:10087C0013D0C4E90067083400260827BC4634E7C7
:10088C001A99073121F0070101F108061A96D1E9EE
:10089C000067E3E76FF01B00BCE0C4E90067EAE720
:1008AC0000260427BC469DE7324600260427BC469A
:1008BC0098E7E14680461A9A111D1A911268029225
:1008CC00079A1D4698E6624B029A9A4204D3614BF2
:1008DC009A420AD3002300E00023002B7FF496AE4B
:1008EC00059B03F00202002095E60123F5E7069B29
:1008FC0001330693B4E610B10AF1010AB0E6009B8D
:10090C0013B10AF1020AABE60298FFF7FBFB0AEB04
:10091C00000303F1020AA3E61A990D1D1A95096842
:10092C0000B121600434E0E68046231AB3F5806FF1
:10093C0080F0858090B1002202609B080370009BC0
:10094C0083B1069BC370049B88F802301BBB019DCE
:10095C00DDF80C90DDF810B0029F3DE05344A3F19C
:10096C00080057E0069B4370EDE701339842EED93F
:10097C0003F140026A4412F8101C12F9102C002AE0
:10098C00F3DA01F07F01A4EB08020132524559D889
:10099C0004F8011BE9E7019B0398E7E7009B43B3CD
:1009AC0005F140036B4413F8203C04F8013B019E15
:1009BC00A4EB080333440133534546D805F14003F7
:1009CC006B4413F8103C04F8013B32463946204680
:1009DC0008F046F934440135A94519D9BBF1000F8B
:1009EC00DCD005F140036B4413F9103C002BD5DA35
:1009FC00F1E705F140036B4413F8103C58F82370F1
:100A0C00002248F823203846FFF77CFB461CCFE732
:100A1C00A4EB080011B0BDE8F08F6FF00D00F9E702
:100A2C006FF01B00F6E76FF01B00F3E76FF015009B
:100A3C00F0E76FF01500EDE76FF01500EAE76FF0E7
:100A4C001500E7E76FF01B00E4E76FF01B00E1E730
:100A5C00A48D0000889C00002DE9F04F97B000AFEA
:100A6C008346BA613B61D7F88030C3F3C0033B6265
:100A7C00F96011B905F03BFCF8609BF80260B146D7
:100A8C0036B1D7F8803013F0010F0DD1002300E000
:100A9C0000239BF803207A6242B1D7F8802012F031
:100AAC00020F22D1002202E00123F2E7002202B958
:100ABC00EBB19BF80050AA00BA60DBF804207A6115
:100ACC000BEB8505BA69F2B1002B40F00481B9F14A
:100ADC00000F00F00F81D7F8803013F0040F40F0B6
:100AEC000D810020F8610646F9E00122DFE7BB69C1
:100AFC001BB13A69F96858469847FC6820465C3740
:100B0C00BD46BDE8F08FFC68E3B94D4400233B6162
:100B1C0023E00444013501364E451AD22A780023CD
:100B2C005BF822201946B86905F0F6FBBAF1000F04
:100B3C00EFD0D7F888309845EBD22AF8180008F196
:100B4C000108E6E70026C7F81C80B046D7F884A059
:100B5C00E2E7C7F81080D7F81C80D7F8803003F094
:100B6C000503FB604FF0000AA146C7F81CB09CE0DF
:100B7C0000253B6A7BB9002D79D0D7F8803013F073
:100B8C00010F79D1FB68002B6FD10223A9EB03096C
:100B9C0088E00125EDE75946786905F003FC00284B
:100BAC00E9D06C46002387F82C30022387F82D30CF
:100BBC008AB0694611F1100237D012251AB1042DF2
:100BCC0001DDB34B4B61002387F82830022387F8F3
:100BDC0029306ABB112D45DD122362B1042087F840
:100BEC002C00002087F82D0087F82E00012087F8B4
:100BFC002F00F86A08616FF300086FF341086FF378
:100C0C0082086FF3C508022161F38818C3F30A0345
:100C1C0063F353286FF31F58002341469D4800F09F
:100C2C007BFDA546A9F102093CE06FF00045C5E744
:100C3C002B46082D01DD786988610C2B01DDC1F88C
:100C4C001CB001F12003002009E000F1300C07F189
:100C5C00280EF4441CF830CC03F801CB01300128E9
:100C6C00F3D9B7E76FF01B03B7E701238EE7D7F88B
:100C7C00803013F0020F15D0002322461946B869B4
:100C8C0005F04AFBD7F8843053B13B69D7F888207C
:100C9C00934205D2D7F8842022F8130001333B612C
:100CAC00013881440AF1010A35467B6A9A4510D213
:100CBC002E4616F802BB6B78FA6952F82340764B35
:100CCC009C42FFF455AF754B9C42FFF462AF00257C
:100CDC004FE74C4612E707F144000023FB6118B1C3
:100CEC004A46294607F0BCFF4D444FF00008C7F8B0
:100CFC0004901EE00020F8610646F0E7FE6107F163
:100D0C0034000026EBE700253B6A33BB002D3BD0BB
:100D1C00D7F8803013F0010F26D0731C06F1300287
:100D2C0007F12801561806F8149CDEB208F10108E8
:100D3C0025467B6A98454AD22C4614F802AB95F8A6
:100D4C0001905BF82930544A9342DCD3534A9342C6
:100D5C0001D30025D8E70125D6E75146786905F07F
:100D6C0021FB0028D2D0E1E7D7F8803013F0040F34
:100D7C00DCD0FA69531C303207F128010A4402F81E
:100D8C00249CDBB2FB61D1E7D7F8803013F0020F63
:100D9C0009D0731C06F1300207F12801561806F829
:100DAC00149CDEB2C2E7F869431C00F1300107F174
:100DBC0028028A1802F824AC02460232D2B2FA6136
:100DCC0007F1580252FA83F303F8249CAEE7D7F8E4
:100DDC0004909BF8003087F854309BF80130334472
:100DEC0087F85530D7F8803013F0020F0ED1FB691D
:100DFC00C3F3470387F85730D7F8803013F0010F4F
:100E0C0006D113F0040F3ED1002302E00023F1E7DA
:100E1C00002387F85630DBF800003863786DCBF888
:100E2C000000D7F810804246B9685846D7F818A089
:100E3C00D047041EFFF662AE386BCBF80000C7F843
:100E4C0010804246F96907F13400D04700285EDB78
:100E5C0004EB0008B96849447B6A01EB4301D7F8FD
:100E6C0010904A46FB68591A2846D047041EFFF6D4
:100E7C0045AE08EB04054FF00008C7F824B0B346A4
:100E8C005446CA4621E0FB69C3E74FF0000909E06C
:100E9C0060910000B48F0000A48D0000889C0000BD
:100EAC004FF000095246012107F12C00A047002801
:100EBC002FDB05444B4632465146204605F02CFAB2
:100ECC00002828DB054408F10108D84518D208F1A0
:100EDC00300307F12802134413F8143C87F82C3024
:100EEC007A6A52F82360D7F88430002BCDD0D7F82B
:100EFC0088309845D4D2D7F8843033F81890D1E79D
:100F0C003A6900210846BB6998472C46F6E5044629
:100F1C00F4E50446F2E50446F0E500BF014B186029
:100F2C00704700BFC004002080B505460E4617462A
:100F3C00984604F079FA034607F024FF0446DFF8DC
:100F4C00189049F80030424639463046A84754F8C4
:100F5C00090001F045FC00BF080000002DE9F0433A
:100F6C0083B0044608461546238B13F0080F05D1B1
:100F7C0003F0070600230093019354E0012909D0E4
:100F8C0043F02003238385F31188BFF36F8F03B0E5
:100F9C00BDE8F08343F010032383F4E7204605F00B
:100FAC0062FD42E0D4F814904A466946204605F0AA
:100FBC0073FD4FF00008238B03F00707B74269D08D
:100FCC00A268002A66D0012243F00803238385F32C
:100FDC001188BFF36F8F002A64D1009B2BB14B4655
:100FEC003A466946204605F0D0FDB8F1000F02D014
:100FFC0034492046C047EFF31185202383F3128830
:10100C00BFF36F8F238B23F008032383238B13F001
:10101C00100F4DD023F0100323830120268B06F0F4
:10102C0007060028AFD00228B8D00028ABD0013872
:10103C0004282BD801A353F820F000BFB10F0000F7
:10104C00991000005D100000711000008510000068
:10105C002369D3F800800621204605F0DAFC4FF016
:10106C000009A8E72369D3F804800421204605F081
:10107C00D0FC4FF000099EE72369D3F808800521C6
:10108C00204605F0C6FC4FF0000994E74FF000082D
:10109C00C14690E7009A0AB1002295E7B8F1000F1B
:1010AC0092D1B3E74A463946204605F0BAFC94E79C
:1010BC0013F0200F04D023F0200323830220ADE78C
:1010CC000020ABE7C56B000038B505460B4C00E0C3
:1010DC0010340B4B9C420FD263685B79002BF7D01A
:1010EC002946204605F029FE0028F1D023681B680C
:1010FC00294620469847EBE738BD00BFFC8F00001F
:10110C001C90000070B506460D46084C04E02A46BB
:10111C003146204698471034054B9C4204D2236834
:10112C009B69002BF3D1F6E770BD00BFFC8F00006C
:10113C001C9000002DE9F041074605460AE007EA3D
:10114C000807144B03EB06135B680422196820464E
:10115C0000F0B4FAD5B195FAA5F6B6FA86F60D4CB0
:10116C0004EB06140123B3406FEA030825EA0305D8
:10117C00237B002BEED03301064AD3581B69002B7E
:10118C00DDD0204698470028E4D1D8E73846BDE8A2
:10119C00F08100BFFC8F00002DE9F04180460F4626
:1011AC00204BBFF35B8F53E8005F6A1C43E80021C0
:1011BC000029F8D1BFF35B8F002D2FD11A4C0026DC
:1011CC0007E0636804221968204600F077FA0136BC
:1011DC001034164B9C4213D2237B002BF7D0236880
:1011EC00DB680BB12046984723681B69002BE8D0BD
:1011FC00204698470028E4D00123B3401D43E6E77E
:10120C00B8F1000F0BD055B12846FFF793FF0546F8
:10121C00002FF8D00A2005F096FDF4E700252846AB
:10122C00BDE8F081080D0020FC8F00001C90000030
:10123C0008B5064B186018B1054B1B68092B00DC70
:10124C0008BD044803F0ECFCFAE700BFFC0C0020DE
:10125C00040D00209405002008B5024803F0E0FCC2
:10126C0008BD00BF9405002030B589B000220F499D
:10127C000F4807F0D6FC0F4D00220023CDE90623C2
:10128C00002404940E2303930294019400940A4BBB
:10129C004FF440720949284607F0FEFA08492846DF
:1012AC0003F038FD204609B030BD00BF65120000C8
:1012BC00600A0020A805002021160000800E0020E6
:1012CC0018920000014B53F8200070473492000034
:1012DC0048B108B5054A1060054B1960084600F086
:1012EC000FFD002008BD6FF015007047C4040020EE
:1012FC00F80C002008B5054B1B781BB1034B0122E1
:10130C001A7008BD024803F08BFCF7E76C0E002046
:10131C009405002008B5104BBFF35B8F53E8001FFA
:10132C00013143E80012002AF8D1BFF35B8F30B9CA
:10133C000A4807F082FC0A4803F072FC08BD094B0E
:10134C00BFF35B8F53E8001F013943E80012002AFA
:10135C00F8D1BFF35B8FEBE7000D0020600A002093
:10136C0094050020040D0020064B00200146BFF31D
:10137C005B8F53E8000F43E80012002AF9D1BFF34A
:10138C005B8F7047000D002038B5FFF7EDFF054669
:10139C00094C00E01034094B9C420BD263685B791A
:1013AC00002BF7D023685B68002BF3D0294620462E
:1013BC009847EFE738BD00BFFC8F00001C90000081
:1013CC00034B18680028D4BF00200120704700BFD1
:1013DC00000D002010B5044C0449204605F074F9AA
:1013EC00034B1C6010BD00BF58050020209200006C
:1013FC00F40C002008B50023064A1370064A13604B
:10140C00064A13604FF400410548FFF761FFFFF7F0
:10141C00E1FF08BD6D0E0020000D0020040D002022
:10142C004B6D000008B50146014805F0A2FC08BD53
:10143C005805002008B5024805F029FA08BD00BF80
:10144C005805002008B50146024B186805F097FCBA
:10145C0008BD00BFF40C002008B5024805F093FC51
:10146C0008BD00BF5805002010B582B00022002333
:10147C00CDE90023284B187808B902B010BD684696
:10148C0005F099FC044688B1244BBFF35B8F53E8FD
:10149C00001F013943E80012002AF8D1BFF35B8F1B
:1014AC002046FFF711FE2046FFF7CCFFFFF788FF21
:1014BC0058B91B4A1368516813F57A7341F100014E
:1014CC0013605160FFF7C8FFD7E707F09BFB4A0199
:1014DC0042EAD06243011B1A62EB0102920042EA1B
:1014EC0093729B001B1842EB0102D20042EA53722A
:1014FC00C3F3103343EA4243D20B094801684068F6
:10150C005B1A62EB000240F2E9318B4272F100028D
:10151C00CFD3FFF739FFCCE76C0E0020040D002071
:10152C00580A00200F4B1B7803B1704710B50021EF
:10153C000120FFF731FE0C4C00E010340B4B9C42A9
:10154C0008D263685B79002BF7D023689B68204630
:10155C009847F2E7FFF788FF0028FBD1014B0122E7
:10156C001A7010BD6D0E0020FC8F00001C90000046
:10157C0010B582B01A4BBFF35B8F53E8002F511C90
:10158C0043E800100028F8D1BFF35B8F154B1B7894
:10159C0063B9154B1B68B3B1BAB1092A13D11348FF
:1015AC0007F04BFB124803F03BFB0CE0EFF311840C
:1015BC00202383F31288BFF36F8FFFF755FF84F35B
:1015CC001188BFF36F8F02B010BD00220023CDE94C
:1015DC0000234FF400420023044804F049FAF2E7D8
:1015EC00040D00206D0E0020FC0C0020600A002071
:1015FC009405002010B50446044B1B689847A06066
:10160C002146034805F0DBFB10BD00BFC4040020DD
:10161C00580500202DE9F04100210846FFF7BCFDDC
:10162C00804650B140F26766002707F0ABFB154BC4
:10163C001858FFF7FDFD002515E04FF0FF364FF071
:10164C00FF37F2E74046FFF775FD804670B94FF063
:10165C00FF364FF0FF3709E02C4632463B460A482E
:10166C0003F022FB2546B8F1000FEBD1FFF7FCFE8F
:10167C0004460028F6D1002DEED000210846FFF7D5
:10168C0041FDEAE708000000940500200248034BE6
:10169C00C01AC008704700BFFC8F0000AC8F000060
:1016AC0010B50C46FFF7F2FFA04203D9024B53F8DA
:1016BC00340010BD0020FCE7AC8F000008B5094BCE
:1016CC00C31A1B110133D0F804C08CF804304368E2
:1016DC009A7143681960436801225A71FFF70AFE38
:1016EC0008BD00BFFC8F000000B589B005920693C1
:1016FC000023079362B1074A0C9B02930B9B019347
:10170C000A9B009305ABFFF7A7F909B05DF804FB42
:10171C000022F1E7DB6D00002DE9F04F8BB004AF38
:10172C0005461E468846C1F34A24002C00F08980E9
:10173C0091460022FA603A617A6104230293FB1805
:10174C0001930A23009307F10C0321464846FFF747
:10175C0083F9B0F5006F58D3D9F804106D46002307
:10176C003B7302237B738AB004AC14F1100217D0C4
:10177C0012201AB1042801DD3B4B636100233B703E
:10178C0002237B70CAB10346082800DDA1610C2B33
:10179C0002DD40F2FF73E36104F1200300210AE053
:1017AC006FF00040E5E701F118063E4416F8186C9E
:1017BC0003F8016B01310129F5D9112822DD12231F
:1017CC0042B10421397300217973B9730121F97382
:1017DC00F868206100216FF300016FF341016FF392
:1017EC0082016FF3C501022060F38811C3F30A0371
:1017FC0063F353210023C1F313011C4805F067FB6D
:10180C00AD462DE06FF01B03DAE760F35328C0F30D
:10181C000A0A0AEB1850173020F007008008FFF76F
:10182C0001FE8346B0B104230293FB1801930A23F3
:10183C000093534600F1100221464846FFF754FF2F
:10184C0008E004EB1154173424F00704A008FFF748
:10185C00E9FD8346334642462946584605F0CDFA03
:10186C001C37BD46BDE8F08F54920000C48F0000B9
:10187C002DE9F04F85B080460D4617461E46DDF823
:10188C0038B0DDF84090B9F1000F41D0119B0393B3
:10189C0000934B460F9A10210020FEF783FEB0F503
:1018AC00006F2DD282460BEB0003173323F0070396
:1018BC0000246FF300046FF341046FF3820468F3A8
:1018CC00C50467F3881460F353246BF31F54980812
:1018DC00FFF7A8FD074650B11030B9F1000F06D044
:1018EC00119B00934B460F9A5146FEF75BFE334615
:1018FC0022462946384605F080FA05B0BDE8F08F3F
:10190C0040F2FF73034A0221034805F0C8FAF4E7DA
:10191C000020C7E794920000C48F0000406820B1FB
:10192C00034BC01A40F3CF0070474FF0FF307047A5
:10193C00AC8F00000EB400B582B0014603AB53F877
:10194C00042B0193034801F08FF902B05DF804EB0E
:10195C0003B07047116F000010B584B011F0440F44
:10196C0005D01A4B1B6833B9002004B010BD1849C0
:10197C00FFF7E0FFF9E717490968B2FBF1F2B2FB98
:10198C00F3FC03FB1C224FF47A7E0EFB02F2B2FB3B
:10199C00F3F403FB14210EFB01F1B1FBF3F10E4A3E
:1019AC00A2FB0C32D20A4FF4616303FB12CC0B4B3B
:1019BC00A3FB0CE35B0902910194C3EB0311ACEBA9
:1019CC00810100910649FFF7B5FFCEE7100D00200D
:1019DC00CC9200000C0D0020C5B3A2918988888898
:1019EC00D892000061B108B52AB1064A52F82320FA
:1019FC0012B9054A00E0044A0449FFF79BFF08BDF1
:101A0C00704700BF78930000F49200003091000002
:101A1C002DE9F04105461746069EDDF81C8081B97C
:101A2C0000242EB1324611492846FFF783FF0444A7
:101A3C00B8F1000F14D06FB1099B042B13D00C49D3
:101A4C0009E00C4B099A53F822200B49FFF772FF5F
:101A5C000446E6E7064942462846FFF76BFF044476
:101A6C002046BDE8F0810549F5E700BF1093000062
:101A7C00009300008C93000008930000FC9200007F
:101A8C002DE9F04F87B005460C46049205939DF85E
:101A9C004C7001F0020B01F0010AC1F3C00801F413
:101AAC00807905F092F918B3024616492846FFF7DB
:101ABC0041FF0646BBF1000F1CD13A465146284661
:101ACC0005F04BFAB9F1000F01D0002311930397E5
:101ADC00129B0293119B0193109B00930023049A79
:101AEC0041462846FFF794FF304407B0BDE8F08F1D
:101AFC000026DFE7059A21462846FFF72DFF06440E
:101B0C00DBE700BF1493000011F0100F0BD108B5E8
:101B1C0011F0200F03D00449FFF70CFF08BD034957
:101B2C00FFF708FFFAE77047949400001893000041
:101B3C002DE9F04105460F46164698460699FFF7E3
:101B4C00E3FF0024444505DA24492846FFF7F2FE5A
:101B5C000134F7E7002409E020492846FFF7EAFEA4
:101B6C000BE01F492846FFF7E5FE01340F2C0CDC77
:101B7C00002C02DD14F0070FEED0B442F1D23A5D26
:101B8C0018492846FFF7D6FEEFE717492846FFF716
:101B9C00D1FE002409E011492846FFF7CBFE0BE0EB
:101BAC0012492846FFF7C6FE01340F2C13DC002C1B
:101BBC0002DD14F0070FEED0B44207D23A5D0C4BA5
:101BCC009B5C13F0970FEBD12E22E9E703492846D3
:101BDC00FFF7B0FEE8E7BDE8F08100BF0C93000012
:101BEC00249300001C930000289300002C93000009
:101BFC00789B00002DE9F04184B004469DF82C50F0
:101C0C000C9F0E9E95B9012B1ED019484FF0000861
:101C1C0027B13B462246174904F094FBC6B905BBD5
:101C2C00204605F058F904B0BDE8F08103950A98F8
:101C3C000290019300920B4600220F992046FFF769
:101C4C001FFF80460C48E3E70B484FF00008DFE726
:101C5C000F9B0093434632460D99204605F095F9AB
:101C6C00DDE72A460F99204605F083F9D8E700BF37
:101C7C00496F0000752C0000116F00002DE9F04336
:101C8C0083B00646056842F20F738B4228BF0B46A1
:101C9C00184A0521684603F02BFF04467368D3F8F5
:101CAC0004900B27DFF8508005E04A463946404641
:101CBC00A8473F1A8044002FF7D17368D3F80480EB
:101CCC006F4605E0424621463846A847241A074489
:101CDC00002CF7D173685F681B24084E05E03A4668
:101CEC0021463046A847241A0644002CF7D103B0ED
:101CFC00BDE8F083489500004C9300003093000041
:101D0C00074B01221A6004E04008054A13685B0087
:101D1C001360044B9842F7D8034B1860704700BF10
:101D2C000C0D002040420F00100D0020034B01222F
:101D3C001A70034B034A1A60704700BF6E0E0020E6
:101D4C003C0D0020400D002008B5034B01221A70F9
:101D5C00024805F068F908BD6F0E0020CC93000016
:101D6C00014B196000207047280D002008B518B9E8
:101D7C00074B00221A7008BD064B1B7823B141F2A9
:101D8C00883006F0F5FCF6E7052005F063F9F2E77C
:101D9C006E0E00206F0E002038B504460A4B01224F
:101DAC001A700A4B1B782BB938BD651E2046FFF7FD
:101DBC00DDFF2C46002002F07FFC0028F4D0024B03
:101DCC001B78002BF1D1EFE76E0E00206F0E002078
:101DDC002DE9F04107460E464FF004080DE032465F
:101DEC003946002002F000FC044616E04046FFF79E
:101DFC00D3FFF4B9134B1B78DBB1134B1B78002BBF
:101E0C00EDD106F0A8FC054632463946002002F01A
:101E1C00EBFB0446284606F0A6FC002CE6D1094B49
:101E2C001B78002BE5D008F1FF384046FFF79EFFEA
:101E3C00DFE714B9034B1B7803B934462046BDE8E1
:101E4C00F08100BF6E0E00206F0E002008B5024816
:101E5C00FFF714FF08BD00BFCC93000010B50C4673
:101E6C00044B1868FFF72EFA03460F22214602484E
:101E7C00984710BD280D0020CC93000070B5064685
:101E8C000D46002405E0315D044883685B68984783
:101E9C000134AC42F7D3284670BD00BF148E00004D
:101EAC00014B0360002070473094000008B50348D4
:101EBC0004F0A5FA024804F0A2FA08BD3094000020
:101ECC00689400002DE9F04182B000AF0446D0F8D0
:101EDC0000E0D0F804C085686E468AB06B4613F1FA
:101EEC00100200F0888014218AB10846042903DD11
:101EFC00DFF81C81C3F81480082801DDC3F818E052
:101F0C000C2801DDC3F81CC0102800DD1D6213294C
:101F1C0074DD14253AB10521397100217971B9713B
:101F2C00F9717868186100216FF300016FF34101BA
:101F3C006FF382016FF3C501012363F38811C5F3BD
:101F4C000A0565F353216FF31F5100233148FFF746
:101F5C00E3FBB546D4F80CC026696569E8468AB03F
:101F6C006B4613F110024CD0142182B1084604299F
:101F7C0003DDDFF8A4E0C3F814E0082801DDC3F8A2
:101F8C0018C00C2800DDDE61102800DD1D6213294D
:101F9C003ADD14253AB10521397100217971B971F5
:101FAC00F9717868186100216FF300016FF341013A
:101FBC006FF382016FF3C501012666F38811C5F337
:101FCC000A0565F353216FF31F51124D0023284668
:101FDC00FFF7A2FBC546E369104A3146284604F0D8
:101FEC005EFFA3690E4A3146284604F058FF0837B5
:101FFC00BD46BDE8F0816FF0004175E76FF01B0541
:10200C0088E76FF00041B0E76FF01B05C2E700BF37
:10201C0098940000E48F0000C8940000F89400002D
:10202C000895000038B504460D4611B10846FFF777
:10203C0049FF012C04D02946204602F099FB38BDFB
:10204C00EFF30583103B034A0121034804F027FFFB
:10205C00F1E700BF38950000E48F000030BFFFF7B8
:10206C00FDBF00BF38B50446054D2A46054906F0AC
:10207C00F7FD054A0021601906F000FE38BD00BFCF
:10208C0000000000609000000400000070B50646DF
:10209C00064D074B1D444C1B2046FFF7E3FF083C45
:1020AC00C6F8A44005F1080070BD00BF0000000098
:1020BC0004000000074B9B6893F90E20002A08DBF4
:1020CC00044A5269934204D0034A536843F0805344
:1020DC0053607047340E002000ED00E081690D4B19
:1020EC005A6942F480725A61BFF34F8FBFF36F8FFE
:1020FC0031F8021C5A6922F480725A61BFF34F8F77
:10210C00BFF36F8F4DF60273994201D000207047D8
:10211C000120704700ED00E04FF0000C83F800C088
:10212C0002F07F4CBCF17F4F14D102F00C0CBCF1CF
:10213C00080F04D012F0080F09D00846704708B5F4
:10214C00054A0121054804F0A0FE002008BD01222B
:10215C001A707047002070474C950000E48F000007
:10216C0008B52B4A01212B4804F08FFE2A4B9B6AA1
:10217C0013F0007F21D11D20274B9B6A13F0807F29
:10218C0022D1254B9B6A13F4002F24D1224B9B6A3E
:10219C0013F4802F26D1204B9B6A13F4003F28D1D7
:1021AC001D4B9B6A13F4803F2AD11B4A936A6FEA3A
:1021BC0003436FEA1343936208BD184A0121154883
:1021CC0004F063FE1E20D7E7154A0121114804F0E4
:1021DC005CFE1F20D5E7134A01210E4804F055FE82
:1021EC002120D3E7104A01210A4804F04EFE222098
:1021FC00D1E70E4A0121074804F047FE2320CFE720
:10220C000B4A0121034804F040FE2420CDE700BF17
:10221C0078950000E48F000000ED00E09095000040
:10222C00A4950000C0950000E09500000896000001
:10223C002496000008B500230B70034A01210348C3
:10224C0004F023FE08BD00BF50960000E48F000090
:10225C0090B583B000AF0F2923DC2F4C103900232D
:10226C003B7102237B718AB0EC461CF110021AD030
:10227C00122022B1042802DD284BCCF814300023A4
:10228C003B7002237B70E2B10346082801DDCCF8D9
:10229C0018400C2B01DDCCF81C100CF12003002194
:1022AC000DE01F4CDAE76FF00040E2E701F10804A3
:1022BC0004EB070E1EF808EC03F801EB01310129C1
:1022CC00F4D9112824DD12234AB1042139710021DB
:1022DC007971B9710121F9717868CCF8100000217D
:1022EC006FF300016FF341016FF382016FF3C501CE
:1022FC00012060F38811C3F30A0363F353216FF3D6
:10230C001F5100230748FFF707FA0C37BD4690BD55
:10231C006FF01B03D8E700BF74960000A89600006E
:10232C008C960000E48F0000F8B505460F46144665
:10233C00374A0121374804F0A8FD374B9B6A13F448
:10234C00805F25D11626344B9B6A13F4006F26D17F
:10235C00314B9B6A13F4007F28D12F4B9B6A13F4EB
:10236C00806F3FD12C4B9B6A13F4807F41D12A4B59
:10237C009B6A13F4005F43D1274A936A43F47F436B
:10238C0093620121284604F0C9FE20703046F8BD46
:10239C00224A01211F4804F078FD1726D3E7204A72
:1023AC0001211C4804F071FD1826D1E71D4A0121BA
:1023BC00184804F06AFD184A936B926A12F4004FA5
:1023CC0001D11926C9E7184A0121124804F067FD0A
:1023DC0037B1114A936A23F4004393621926BCE780
:1023EC001926BAE7114A01210A4804F04EFD1A26B3
:1023FC00B8E70F4A0121074804F047FD1B26BBE74D
:10240C000C4A0121034804F040FD1C26B4E700BF30
:10241C00BC960000E48F000000ED00E0D4960000B4
:10242C00E8960000FC96000018970000309700001A
:10243C004C970000649700002DE9F04104460F46CC
:10244C001546464A0121464804F01FFD454B9B6A40
:10245C0013F0100F3CD11026424B9B6A13F0080F5F
:10246C003DD1404B9B6A13F0020F3FD16FF0150822
:10247C003C4B9B6A13F0010F58D13A4B9B6A13F0FB
:10248C00200F5AD1374B9B6A13F0100F04D1354BE8
:10249C009B6A13F0020F04D0324B5B6813F4006F8D
:1024AC0052D1304B9B6A13F0200F04D02D4A536A43
:1024BC0023F4005353622B4A936A43F0FF03936255
:1024CC000121204604F02AFE28703046BDE8F08138
:1024DC00254A0121224804F0D8FC1126BCE7234AE6
:1024EC0001211F4804F0D1FC1226BAE7204A012131
:1024FC001B4804F0CAFC1B4BD3F834809B6A13F0C6
:10250C00800F03D16FF015081326B1E74346194A23
:10251C000121134804F0C3FC37B1124A936A23F02B
:10252C00800393621326A3E71326A1E7124A012125
:10253C000B4804F0AAFC14269FE7104A0121084816
:10254C0004F0A3FC15269DE72146404600F016FA40
:10255C000028A6D080F309880226A2E794970000F1
:10256C00E48F000000ED00E0AC970000E89600005E
:10257C00E0970000F89700001098000064970000A6
:10258C0070B506460D462B4A01212B4804F07DFC04
:10259C0000232B70294BDC6A14F002040AD1274B60
:1025AC00DB6A002B0DDB254BDC6A14F080440ED16A
:1025BC00204670BD224A01211F4804F066FC00240D
:1025CC00F6E7204A01211C4804F05FFCF0E71E4AA4
:1025DC000121194804F059FC3046FFF77FFD98B9EA
:1025EC00164B9B6A13F0FF0F16D1144B9C6A14F414
:1025FC007F4418D1114B9B6AB3F5803FD8D330463A
:10260C00FFF7AEFD0446D3E73368104A01210A48B0
:10261C0004F045FC3468CBE72A4601213046FFF72D
:10262C000BFF0446C4E72A4601213046FFF77CFE27
:10263C000446BDE730980000E48F000000ED00E098
:10264C00489800006C9800007C9800009C98000052
:10265C0030B58BB01F4B5D68C5F30805002383F3C1
:10266C001188BFF36F8F0DF12603FFF755FD04465C
:10267C000DF12702294604F053FD9DF827300BB1CC
:10268C000BB030BD05460DF1040C20686168A268E2
:10269C00E368ACE80F0020696169A269E369ACE802
:1026AC000F009DF826304BB1089BC3F308025AB9B2
:1026BC006FEA53236FEA4323089305E0089B23F446
:1026CC00FF7323F00103089301A92846FFF7AAFC26
:1026DC00D6E700BF00ED00E0044B5A6942F010024F
:1026EC005A615A6922F008025A61704700ED00E005
:1026FC00EFF30880EFF3098101B57246FFF7A8FFED
:10270C0001BD00BF002080F31488BFF36F8F114808
:10271C0080F3088800201049087001F097FA002017
:10272C000E490860BFF34F8F00F030F8202080F383
:10273C0011880B484FF40461401880F30988EFF3BB
:10274C0014800221084380F31488BFF36F8F00F0CC
:10275C00D7F80000801F0020750E002094ED00E0DB
:10276C00C0110020084BD3F89000C0F307200023C1
:10277C0006E0054AC2F898300021C2F8A0100133D7
:10278C008342F6DB704700BF00ED00E010B572B677
:10279C00002484F31388FFF7E5FF234608E003F1D8
:1027AC0020010E4A4FF0FF3042F821000133DBB21A
:1027BC00072BF4D9002308E003F16001074A4FF01E
:1027CC00FF3042F821000133DBB2072BF4D962B69B
:1027DC00BFF34F8FBFF36F8F10BD00BF00E100E060
:1027EC0008B50A4B9B68834202D002F023FE08BD59
:1027FC00EFF30583002BF8D0054B5A6842F080525A
:10280C005A605A6A22F400425A62EEE7340E0020F3
:10281C0000ED00E016498A684FF030001044EFF3E9
:10282C00098C80E8F01F202080F31288BFF36F8F93
:10283C00104F4FF000664A698A603E604FF0A40466
:10284C00141920680C4C2060D2F8A8000023C2F8A0
:10285C00A83080F3118804B5104600F011F9BDE8DA
:10286C00044002F1300090E8F01F8CF309887047A7
:10287C00340E002004ED00E0800D00201EF0040F4B
:10288C000CBFEFF30880EFF30980816911F8021C8B
:10289C000229FFD001B5724604F034FC01BD00BF23
:1028AC00002807DB00F01F02400901239340024A75
:1028BC0042F82030704700BF00E100E0002808DB40
:1028CC004901C9B200F1604000F5614080F8001385
:1028DC00704700F00F004901C9B2014B1954704701
:1028EC0014ED00E04209054B53F8222000F01F00C4
:1028FC00012303FA00F01040704700BF00E100E034
:10290C0008B50B4B0B4A22F07F029A60BFF34F8F36
:10291C00BFF36F8FD3F8882022F47002C3F888209D
:10292C0002F0D6F802F0E4FE00F072F802F02EF994
:10293C0000ED00E00000000010B4A2F120040E49EC
:10294C0042F8081C21F0010142F8081C42F8203C16
:10295C00019B42F81C3C029B42F8183C039B42F83A
:10296C00143C4FF0807342F8043C04650023C0F81B
:10297C00A83010BC704700BF350F0000104B9B688F
:10298C00BBB110F1160F0BD0D3F89420A2F1400C70
:10299C00844510D8824210D98A4207D8002070474B
:1029AC00D3F894208A4201D800207047D3F89400C1
:1029BC00704700207047002070470020704700BF10
:1029CC00340E002008B50E4615460A4A9060D0F821
:1029DC00A420094B1A6000F053F82C4686F30988A2
:1029EC000020064B98472046002100220023044C6F
:1029FC00204700BF340E0020800D0020997100008C
:102A0C00350F0000014B10221A61704700ED00E0F9
:102A1C00002206E003F00F030949194420230B762A
:102A2C000132262A0ADC53B2002BF3DB03F160439C
:102A3C0003F56143202183F80013F1E7704700BFD1
:102A4C00FCEC00E008B5EFF30583103B044A02EB05
:102A5C00C301496852F833008847FFF72BFB08BDC8
:102A6C00288E000008B5034B034A0121034804F0EB
:102A7C00B8FC08BD0000012000000020B898000040
:102A8C0008B5D0F89430403B0448036040234360C1
:102A9C00034B8360012104F0A8FC08BD840D0020C9
:102AAC0000000B15084AC2F898000B6823F01F03AE
:102ABC00034343F01003C2F89C308B6843F00103CE
:102ACC00C2F8A030704700BF00ED00E010B504461E
:102ADC000A4BD3F89030C3F30723013B984203D839
:102AEC00FFF7E0FF204610BD0346054A01210548CB
:102AFC0004F0D5F96FF01500F5E700BF00ED00E02C
:102B0C00C8980000DC8F00002DE9F04780460F4686
:102B1C009A461646002409E02946F0B204F06AFBF6
:102B2C00064610F1160F1AD001360134BC4216DAE3
:102B3C0004EB440508EB85056A68002AF5D0BAF168
:102B4C00000FE9D0284604F044FB0028E4D12346CA
:102B5C00044A0121044804F0A2F96FF0150630462E
:102B6C00BDE8F087F0980000DC8F000010B5034C36
:102B7C0001232278FFF7C8FF207010BD700E0020D3
:102B8C0008B500230B4A1278FFF7BEFF10F1160FA1
:102B9C000FD0024606E0084BC3F898200021C3F87A
:102BAC00A0100132044BD3F89030C3F307239342A7
:102BBC00F1DC08BD700E002000ED00E0044B052296
:102BCC00C3F89420BFF34F8FBFF36F8F704700BFD4
:102BDC0000ED00E0BFF35F8F024B0022C3F894209E
:102BEC00704700BF00ED00E038B51C4B1D681C4B56
:102BFC00D3F89030C3F307239D422BD8FFF7EAFF9D
:102C0C00002409E0154B5B6804EB440103EB8101E4
:102C1C002046FFF747FF0134A542F3D81148057051
:102C2C0004F007FB10F1160F13D00E4B1A780C4B57
:102C3C00D3F89030C3F307239A4207DA084BC3F852
:102C4C0098200021C3F8A0100132F0E7FFF7B6FF7F
:102C5C00002038BD4FF0FF30FBE700BF1499000097
:102C6C0000ED00E0700E002030B587B00D46114627
:102C7C000024009401940294039404940594022279
:102C8C008DF80220044A0192049005951A46684674
:102C9C0002F05AFF07B030BDFF73000008B5024BBD
:102CAC001B689847002008BD900D0020034B18604E
:102CBC00034A937843F0020393707047900D002001
:102CCC00D004002008B5064921F00701C1F10052DB
:102CDC0002F58032034803F07EFA002008BD00BFE5
:102CEC00C71F0020940D00200123044AC2F8403570
:102CFC004FF08042C2F878350020704700E0014068
:102D0C0030B108B5034B800143F00103984708BD6F
:102D1C00704700BF7090000000487047F40D002011
:102D2C00034BC01A8010034B03FB00F0704700BF2D
:102D3C00B40D0020B76DDBB638B505460C46FFF771
:102D4C00EFFF01464022034804F0EEFB0146284603
:102D5C00A04738BDEC8D000030B583B005460C465D
:102D6C00FFF7DEFF0146402300932346054A064841
:102D7C0004F0F4FB011E01DB03B030BD2846A04774
:102D8C00FAE700BFB1750000EC8D000008B510B17A
:102D9C0001280DD008BD0021084804F051FB8368C0
:102DAC0013F0070FF6D10021044804F0ABFBF1E758
:102DBC000121024804F0A6FBECE700BFEC8D0000FB
:102DCC0010B582B0EFF31184202383F31288BFF384
:102DDC006F8F154A136843F00201116013F0010F55
:102DEC0009D1002384F31188BFF36F8FB3B904F0BA
:102DFC00E1FB02B010BD0DF1070201214FF0804044
:102E0C0004F002FB9DF80730012B01D00023E9E709
:102E1C00FFF782FF04F064FB0123E3E70021034882
:102E2C0004F070FBE5E700BF040E0020EC8D000001
:102E3C0010B5EFF31184202383F31288BFF36F8F47
:102E4C00074A136823F00201116013F0010F04D03C
:102E5C0084F31188BFF36F8F10BD04F0B0FBF7E75C
:102E6C00040E002070B582B00546012807D14FF042
:102E7C008043D3F81C3403F00303012B4BD005F033
:102E8C00F8FC044618B9284B1B78002B38D1EFF30B
:102E9C001186202383F31288BFF36F8F012424B98A
:102EAC004FF080430222C3F8082301AA00214FF0FF
:102EBC00804004F0A9FA20B1019B012B26D0012DF2
:102ECC0024D0FCB1304604F075F94FF08043D3F8B0
:102EDC001835002BE9D14FF08043D3F80431002B87
:102EEC00E3D04FF080430022C3F80421D3F804212F
:102EFC000122C3F818250D49C1F880219A60D4E746
:102F0C000026CCE7012004F064FBDEE72CB186F34D
:102F1C001188BFF36F8F02B070BD4FF08043022257
:102F2C00C3F80423F7E700BF750E002000E100E0B2
:102F3C0000B585B0CDF800D0CDF804D000230293B5
:102F4C00012303936B46074A04F024FB002805DB9E
:102F5C004FF480420023684601F0A6FE05B05DF8F0
:102F6C0004FB00BF0B76000008B5064B1B7803B1C1
:102F7C0008BD4FF4A57005F0FBFB024B01221A7043
:102F8C00F6E700BF710E002070B506460022012145
:102F9C00104604F0EFF8114801F000F8104B98427D
:102FAC0019D101F00FF80024012C12D8214630461B
:102FBC0004F046FA05462146304604F04EFA09491B
:102FCC0003F008FE002805DB0123AB601C44E4B2CF
:102FDC00EAE7002070BD6FF00400FBE7992D0000BC
:102FEC000000AD0B4899000010B50446104B0121B0
:102FFC00BFF35B8F53E8002F43E800100028F9D192
:10300C00BFF35B8F1AB1631E012B0DD910BD09489C
:10301C0004F023FA084900234B608B60CB6001233A
:10302C008B6003F0F4FDEEE72046FFF71BFFEDE7A6
:10303C00B00D0020EC8D0000A00D002010B5044652
:10304C000A2806D0E1B2064883685B689847204698
:10305C0010BD034883685B680D219847F2E700BFF9
:10306C00148E000010B5044C2046FFF71FFE2046BE
:10307C00FDF754FF10BD00BF4930000008B50548EE
:10308C0005F07CFB18B1FFF7EDFF002008BD6FF0D9
:10309C001200FBE7148E000008B9024870470020AC
:1030AC00704700BF008E00002DE9F04786B08846BF
:1030BC0015469946446801F01F06237B46EA4316E1
:1030CC00204604F059FB00285DD0B5F5001F2AD02E
:1030DC000DF10C0A0027039704974946284604F083
:1030EC00C0FB8DF80C00009701970297CDF804A057
:1030FC00A36823FA08F313F0010F02D1B5F1A07FF6
:10310C0018D010346A463146204605F0EFFA214BB0
:10311C0098423BD101223146204605F00BFB0020A2
:10312C0006B0BDE8F087314604F1100005F006FB4F
:10313C000020F5E706F01F03720917D14FF0A042EB
:10314C0003F5E07352F8233013F0010FD9D104F1D9
:10315C0010050DF117023146284605F0D3FA0E4B37
:10316C00984205D00DF117030493CAE73A46E7E7F6
:10317C000DF11701284605F0D9FA064B9842F1D00B
:10318C006FF00B00CCE76FF08500C9E76FF015000E
:10319C00C6E700BF0000AD0B0400AD0B2DE9F043FA
:1031AC0089B0074689461446456801F01F082B7BF9
:1031BC0048EA4318104604F0E4FA8DF81E0040F279
:1031CC0006332340B3F5837F5ED016D8062B57D039
:1031DC0006D9B3F5807F0DD101238DF81D3024E085
:1031EC0003B3022B03D104238DF81D301DE06FF0C7
:1031FC0015076FE06FF015076CE040F20222934266
:10320C0046D0B3F5407F03D103238DF81D300CE07D
:10321C00B3F5007F03D102238DF81D3005E06FF06C
:10322C00150757E000238DF81D30012606FA09F624
:10323C003146384604F0B3FA071E4BDB14F4002F6A
:10324C002AD06B68C3F80865284604F095FA50B389
:10325C0010350DF11F024146284605F053FA06467B
:10326C0014F4403F3AD14146284605F057FA3A4B00
:10327C009E422FD19DF81F10284605F053FA29E0E5
:10328C0006238DF81D30D0E707238DF81D30CCE7D1
:10329C0005238DF81D30C8E714F4802FD4D06B684B
:1032AC00C3F80C65D0E7C4F340438DF8083014F430
:1032BC00803F0CBF012300238DF8103000230193B5
:1032CC000DF11D0300930DF11E0304AA02A9404643
:1032DC0004F0C4F9384609B0BDE8F08302AA002313
:1032EC0002930393049305930693059204AA414613
:1032FC00284605F0FBF9184B984202D06FF01507E1
:10330C00E8E714F4003F1AD09DF81D308DF810300A
:10331C0014F4803F0CBF012300238DF811309DF86D
:10332C001E308DF81230002304AA4146284605F0C1
:10333C00E1F9094B98429AD06FF01507CAE70023C0
:10334C000493059306930DF11E03049304AA4146BE
:10335C00284605F0CBF9ECE70000AD0B10B544683E
:10336C00204604F009FA08B9002010BD103420469C
:10337C0005F0D0F908B10020F7E70021204605F050
:10338C00C5F9094B98420BD100220849204605F09B
:10339C00B5F900220521062003F0ECFE0020E4E73D
:1033AC006FF00400E1E700BF0000AD0BA778000050
:1033BC0030B500F01F0C400917D14FF0A04E0CF5A2
:1033CC00E0705EF820500A4C2C4041EA420141EA80
:1033DC0083039DF80C2043EA02239DF8102043EA56
:1033EC00024323434EF8203030BD4FF0000EE6E789
:1033FC00F0F8FCFF2DE9F04F85B080468B46039228
:10340C00002423E04FF0FF3638E0039BC3F80C6533
:10341C00012702973946B6F1FF3F15D0B1F1FF3FB6
:10342C0040F0E48058F80A3013F4004F40F0E2808A
:10343C00029D00220192CDF80090C3F341233A463D
:10344C0029463046FFF7B4FF0134E4B25C4580F006
:10345C00D3804FEA840A58F82430C3F3C725C3F34A
:10346C00C322C3F3080615F0080540F0C78067496E
:10347C0011F8029040F2FF129642C3D01B0E192B8A
:10348C0000F2BF8001A252F823F000BF17340000F5
:10349C0001350000113500001F3500002F350000EC
:1034AC003F3500004D3500000F3600000F36000090
:1034BC000F3600000F3600005D350000733500003C
:1034CC000F3600000F3600000F3600000F360000DC
:1034DC000F3600000F3600000F3600000F360000CC
:1034EC000F360000893500009D350000B135000015
:1034FC00C5350000039BC3F814652F4602954FF0A9
:10350C00FF3188E7039BC3F808650127029739460A
:10351C0081E7039BC3F810652F4602954FF0FF31EE
:10352C0079E7039BC3F808652F460123029300211A
:10353C0071E7039BC3F80C650127029700216AE72A
:10354C00039BC3F810652F4602954FF0FF3162E7DD
:10355C00039BC3F80865B9F1000F37D02F460295CD
:10356C004FF0FF3157E7039BC3F80C65B9F1000F1F
:10357C0034D02F4602954FF0FF314CE7039BC3F834
:10358C00606558F80A10C1F300410127029742E721
:10359C00039BC3F8646558F80A10C1F30041012776
:1035AC00029738E7039BC3F8686558F80A10C1F313
:1035BC000041012702972EE7039BC3F86C6558F86E
:1035CC000A10C1F300410127029724E74F46CDF8BA
:1035DC0008904FF0FF314FF006091CE74F46CDF82D
:1035EC0008904FF0FF314FF0060914E7304604F015
:1035FC007CF917E701271CE7002004E06FF01500A9
:10360C0001E06FF0850005B0BDE8F08FC4990000B3
:10361C00F8B505460E46476805F02BF920B9154B51
:10362C001B7843B1002300E0012353B9284604F072
:10363C001BFA044611E00123F7E784F31188BFF36A
:10364C006F8FEFF31184202383F31288BFF36F8FF6
:10365C00284604F0A7F90028EFD0BB691E700122A0
:10366C00B969284604F0C5F984F31188BFF36F8F4C
:10367C00F8BD00BF750E002038B505460C4601F1AB
:10368C00080004F02DFC0C4B98420DD105F10C02F6
:10369C0005F59071207A00F015FC237A01209840F2
:1036AC0000F00AFC002038BD044A0121044803F054
:1036BC00ECFB6FF00400F6E70000AD0BCC990000BA
:1036CC00F48F000010B50446436819681A69C1F8F4
:1036DC0024255A7D1B7D1343C1F86C3504F00EFA7A
:1036EC0000B110BD0249204604F01AF9F9E700BFF9
:1036FC00F57A000021F07F4100F5A870014B43F8EA
:10370C0020107047001001404FF480338340024A70
:10371C00C2F84433704700BF001001404FF48033AF
:10372C008340024AC2F84833704700BF0010014082
:10373C00014BD3F804057047001001402DE9F84304
:10374C00054689469046FFF7E9FF284604F07CFAC7
:10375C004E46032710E0FFF7EBFF0446494604F002
:10376C0062FAB0F5000F26D9284604F06DFAB8F1CC
:10377C00000F22D13E19013731462846FFF7BAFF18
:10378C002846FFF7C1FFFFF7D3FF0446C11C3046A4
:10379C0004F049FA0A4B98420AD9284604F047FA31
:1037AC000028D8D1B8F1000FE4D06FF0150000E07C
:1037BC000020BDE8F8830020FBE76FF01500F8E768
:1037CC00FDFF7F00034B044AC3F80823C3F84823CA
:1037DC00704700BF0010014003000F0010B501231B
:1037EC0083406FEA030C0E4ABFF35B8F52E8001F55
:1037FC0001EA0C0E42E800E4002CF7D1BFF35B8F1A
:10380C004FF4803282400748C0F80823BFF35F8F23
:10381C00BFF36F8F0B4214BF0120002010BD00BFFF
:10382C00240E0020001001404FF480338340144AD2
:10383C00D2F80423134201D10020704710B504467E
:10384C0001238340DB430F49BFF35B8F51E8002F0B
:10385C0002EA030041E8000CBCF1000FF6D1BFF303
:10386C005B8F22FA04F313F0010F03D1204604F00E
:10387C00DEF918B1204604F0E7F9012010BD00BFB5
:10388C0000100140200E002001B970470123834035
:10389C00114ABFF35B8F52E800CF4CEA030C42E8AD
:1038AC0000C10029F7D1BFF35B8F4FF48033834005
:1038BC000A4AC2F80433BFF35B8F094B1B68BFF392
:1038CC005B8FC34013F0010FDFD0064B4FF4003277
:1038DC00C3F80021D9E700BF240E002000100140DE
:1038EC00200E002000E100E038B5144610461946C1
:1038FC0004F0B6F902460D490B68E01A1B184C6827
:10390C0044F100040B604C60A2F50013B3F5400FBA
:10391C0009D2074B1B68190A1B06D41841F1000584
:10392C00044BC3E9004501F0A5FF38BDA80A0020EF
:10393C00280E0020B00A002038B50D4B1C68250A53
:10394C002406BFF35F8FFFF7F3FE0346001945F122
:10395C000001B3F5801F0AD2064BD3E90023904235
:10396C0071EB030303D210F1807041F1000138BDFB
:10397C00280E0020B00A00202DE9F041064614461E
:10398C001D469DF820801046194604F069F907463B
:10399C00FFF7D2FFA04271EB050319D2201A65EB99
:1039AC0001011D4B984271F100012FD21B4B03EB0F
:1039BC000613D3E90223AB4208BFA24201D1002077
:1039CC0018E0424639463046FFF7B8FE90B11BE08E
:1039DC00B8F1000F1DD10123B340114ABFF35B8F27
:1039EC0052E8000F184342E800010029F8D1BFF358
:1039FC005B8F0020094B320103EB0616C6E902452A
:103A0C0006999950079B7360BDE8F0816FF0150023
:103A1C00FAE76FF01500F7E701008000980A002024
:103A2C00200E002030B585B0FFF7CCFE00231E4AD7
:103A3C00C2F80835002B25DD1B4C0225C4F80453B5
:103A4C001A4B4FF40032C3F88021002201211120BF
:103A5C0003F090FB112003F088FB0123A36023608B
:103A6C00134A1360002402940194124B0093124ADF
:103A7C000023204604F004F92846FFF7B5FA204647
:103A8C0005B030BD0D4A02EB03124FF0FF304FF082
:103A9C00FF31C2E902014FF480329A400249C1F869
:103AAC0004230133C6E700BF0010014000E100E031
:103ABC00240E0020F5380000FFFF7F00980A00203C
:103ACC002DE9F04782B00446FFF7AEFE10B902B004
:103ADC00BDE8F087FFF730FF82460D4604F0C3F8CF
:103AEC000646154B03EB0413D3E90289C24575EB6B
:103AFC0009050BD20025304604F0BDF8002DE6D0A8
:103B0C00009742464B462046A847E0E70A4A230165
:103B1C0002EB0411D5584F680020D0504FF0FF3203
:103B2C004FF0FF33C1E902232046FFF7F7FD204693
:103B3C0004F08AF8DFE700BF980A002010B50D4B9F
:103B4C00D3F8043313F0020F03D10024002C0BDD47
:103B5C0010BD0221074804F030F80028F5D0064AC1
:103B6C00136801331360F0E72046FFF7A9FF013417
:103B7C00ECE700BF00100140280E002010B584B007
:103B8C00B0F1FF3F18D001281BDD154B9842A8BFA0
:103B9C0018460446134B01221A70FFF7CDFE124B48
:103BAC001A685B68801AB0F5000F0CD20444B4F5A7
:103BBC00000F09D30A4C07E00A4B00221A70084C7C
:103BCC00EBE70124E6E7064C002012190290019065
:103BDC000649009143F1000304F052F804B010BD03
:103BEC00FFFF7F00740E0020A80A0020F5380000AB
:103BFC0008B5FFF7A1FE024B1B68C01A08BD00BF39
:103C0C00A80A0020BFF34F8F0549CA6802F4E0628E
:103C1C00044B1343CB60BFF34F8F00BFFDE700BFD6
:103C2C0000ED00E00400FA05024BD3F80034002B41
:103C3C00FAD0704700E0014008B5034BC3F8040507
:103C4C00FFF7F2FF08BD00BF00E0014038B504F0FB
:103C5C0037F840B14FF08053D3F82433C3F3042327
:103C6C006B4AC2F8403504F03DF810B1694B6A4A12
:103C7C005A6704F04DF848B14FF08053D3F84432F2
:103C8C00C3F342334FF08042C2F83C3504F052F893
:103C9C0030B1624AD2F8FC3023F08073C2F8FC30A9
:103CAC0004F05EF840B14FF080430022C3F80C21C1
:103CBC00C3F81021C3F8382504F064F820B14FF094
:103CCC0080430322C3F8A02504F072F860B1544B72
:103CDC000522C3F810260122C3F888260022C3F857
:103CEC0018263F22C3F8142604F078F8002846D092
:103CFC004FF08052D2F804144A4BC3F82015D2F876
:103D0C000814C3F82415D2F80C14C3F82815D2F8EB
:103D1C001014C3F82C15D2F81414C3F83015D2F8BB
:103D2C001814C3F83415D2F81C14C3F84015D2F883
:103D3C002014C3F84415D2F82414C3F84815D2F84B
:103D4C002814C3F84C15D2F82C14C3F85015D2F81B
:103D5C003014C3F85415D2F83414C3F86015D2F8E3
:103D6C003814C3F86415D2F83C14C3F86815D2F8AB
:103D7C004014C3F86C15D2F84424C3F8702504F031
:103D8C004FF848B14FF08053D3F8583203F04F033B
:103D9C004FF08042C2F8E43E04F054F860B14FF0AA
:103DAC008043D3F8003413F0010F05D04FF080435B
:103DBC006FF00102C3F8002404F056F830B11A4A2F
:103DCC00D2F83C3743F48063C2F83C3704F074F803
:103DDC004FF01023D3F80032002B06DB4FF01023EA
:103DEC00D3F80432002B00DB38BD0120FFF724FF91
:103DFC004FF010241525C4F80052FFF715FFC4F836
:103E0C000452FFF711FF0020FFF716FFFFF7FAFE31
:103E1C000030014000C007400DF0ADBA00ED00E0ED
:103E2C000050004000C000400010004010B5046875
:103E3C00CCB1B4FA84F3C3F11F03DBB201229A4074
:103E4C0024EA0202BFF35B8F50E800CFA44504D1F3
:103E5C0040E8002EBEF1000FF6D1BFF35B8FE6D128
:103E6C000B70024810BD0248FCE700BF0000AD0B10
:103E7C000200AD0B0368CB4013F0010F15D100B558
:103E8C00026801238B401343BFF35B8F50E800CFD4
:103E9C00944504D140E8003EBEF1000FF6D1BFF3CB
:103EAC005B8FEDD102485DF804FB0248704700BF00
:103EBC000000AD0B0400AD0B014BC3F804057047BB
:103ECC0000F00140034BA23043F8301003EBC00369
:103EDC005A60704700F001400D4BD3F8FC1041F0D4
:103EEC008072C3F8FC20A3F55D43186840F0010212
:103EFC001A605A68074B5B689B1AB3F50A5FF9D3D3
:103F0C00044B186003F55D43C3F8FC10704700BF09
:103F1C0000ED00E0001000E070B582B00646C0B1C4
:103F2C00012832D104224FF4807301214FF08040DC
:103F3C00C0F80813024401211160034400221A60E6
:103F4C001B688DF807108E4208D0002542F21074C1
:103F5C000CE00C224FF482730221E7E70DF1070508
:103F6C00F4E7012003F0B8FF013C0CD02A4631469F
:103F7C004FF0804003F0B8FF28B1002DF1D09DF830
:103F8C000730012BEDD0012E01D002B070BD024BD9
:103F9C0000225A71F9E700BF2C0E0020064B1B794A
:103FAC003BB9054B186001221A7100225A71034863
:103FBC0070470348704700BF2C0E00200000AD0B6B
:103FCC000C00AD0B08B5064B1B680BB103F0AAFF38
:103FDC0003F0A6FF4FF08043C3F8180508BD00BFDF
:103FEC002C0E002070B582B018B1012848D002B058
:103FFC0070BD4FF08043D3F81824D3F8183403F075
:10400C000303019312F4803F13D14FF08043D3F894
:10401C00143413F0010F10D103F082FF0190019AB8
:10402C004FF08043C3F8182508254FF482730226FD
:10403C002AE001A803F07FFFF1E74FF08043D3F8AB
:10404C001C3403F00303019301A803F074FF002850
:10405C00E5D01C4B1B682BB14FF080430222C3F8F8
:10406C000423C4E74FF08043D3F80431002BF9D07C
:10407C004FF080430022C3F80421D3F80431B6E793
:10408C0000254FF48073012603F180440022226046
:10409C002268B3F5827F0BD005F1804501232B609C
:1040AC00084B1B683BB14FF08043C3F804639EE799
:1040BC00FFF712FFF0E72368002BFCD000232360EE
:1040CC00236894E72C0E002010B54FF08043D3F8F2
:1040DC00044308E01D4B5B792BB91C4B01225A7130
:1040EC001A4B1B68984784B3B4FA84F0C0F11F00D4
:1040FC000122824083009BB203F580739BB2C0B255
:10410C00D2B224EA020403F1804319680029EAD0F0
:10411C00002119601B684FF08043C3F80823012A63
:10412C00D8D0022ADCD14FF08043D3F81814D3F83E
:10413C00183413F0030FD3D14FF080430121C3F88F
:10414C001815C3F804239960CDE710BD2C0E002080
:10415C0000F01F0240090CD14FF0A04102F5E072B3
:10416C0051F82200044B034043F0020341F8223083
:10417C0070470021F2E700BFF0F8FCFF00487047E1
:10418C00E00400202DE9F04184B005460C461646AB
:10419C001F46084603F0BBFF804656B3214628460F
:1041AC0004F006F828B12146284603F0C1FF002888
:1041BC0041D12146284603F0CAFF10B17378012B78
:1041CC0039D001238DF80F30002301930096B31CD6
:1041DC00721C0DF10F01204603F03AFF2879FFF70E
:1041EC00CDFF08F1080230F8123043F0030320F839
:1041FC001230002F39D02146284603F0D9FF002871
:10420C0035D13E782B6806F5A272002143F82210B6
:10421C002879FFF7B3FF08F1080230F8123023F0C9
:10422C002003DB04DB0C20F812307B782BB911480F
:10423C0004B0BDE8F0811048FAE7BA780092224643
:10424C003146286803F0AAFE2879FFF797FF02464B
:10425C0008F1080032F810307603B6B2334343F05D
:10426C00200322F810300348E2E70248E0E7024856
:10427C00DEE700BF0000AD0B0400AD0B70B50646C9
:10428C000D46144603F054FF68B13079FFF776FF02
:10429C000646284603F03BFF083036F810305B0B1F
:1042AC002370024870BD0248FCE700BF0000AD0B54
:1042BC000400AD0B2DE9F04182B005468846164648
:1042CC001F4604F0FEF8AEB33A463146284603F0DA
:1042DC00CBFF041E20DB2879FFF750FF40F8346039
:1042EC002879FFF74BFF00EBC40047602879FFF7F4
:1042FC0045FF0546404603F00AFF083035F81030FC
:10430C00E4B26402A4B2234343F4807325F8103062
:10431C00094802B0BDE8F0812879FFF72FFF0DF1B5
:10432C0007015830FFF782FD034B9842F1D19DF8FD
:10433C000740D0E70048ECE70000AD0B2DE9F04357
:10434C0085B004460D461746084603F0E0FE0646C7
:10435C00D7F80080B8F1000F28D02946204603F08A
:10436C0016FF00284FD100238DF80E308DF80F303A
:10437C000193009343460DF10F020DF10E012846F7
:10438C0003F066FE2079FFF7F9FE06F1080830F815
:10439C00183023F0020320F818302079FFF7EEFED6
:1043AC0030F8183043F0010320F818307B68F3B173
:1043BC0093F80080D3F804902946204603F0D8FEE9
:1043CC0018B3B9F1000F65D12079FFF7D7FE083685
:1043DC0030F8163023F01C0320F816302079FFF744
:1043EC00CDFE30F8163043EA880320F81630BA6850
:1043FC00002A53D05368126829462046FFF75AFF0B
:10440C0005B0BDE8F0832648FAE72079FFF7B6FE41
:10441C0006F1080230F8123023F02003DB04DB0C29
:10442C0020F81230B9F1000FCED0B8F1030F33D809
:10443C007B685B6893F80090B8F1000F06D1236895
:10444C0009F5A279002243F82920BDE7404603F084
:10445C00B7FE0346216809F5A27C51F82C2022F006
:10446C00030241F82C202A464946206803F07DFDC2
:10447C002079FFF783FE06F1080230F812304FEA7C
:10448C0049391FFA89F943EA090343F0200320F85C
:10449C00123099E70248B3E70148B1E70148AFE7AA
:1044AC000400AD0B0000AD0B38B505460C4603F00F
:1044BC0030FE08B9074838BD2146284603F0B1FE46
:1044CC002146284604F028F82046FFF741FE024812
:1044DC00F1E700BF0400AD0B0000AD0B70B582B06E
:1044EC0005460E460079FFF749FE90F8603013B18F
:1044FC000B4802B070BD044640220021103004F07D
:10450C00BDFB236D0093002332464FF00041286819
:10451C0004F02CF8012384F86030A3650148E8E727
:10452C000C00AD0B0000AD0B08B50249024804F0BD
:10453C00C3F808BDE00400200060004008B5014647
:10454C000148FFF773FC08BD4405002010B5134C5F
:10455C00A8220021204604F091FB03232361636110
:10456C000F4AA2610F4BE3614FF480632362002377
:10457C00A3626362E36222660B4A62661022A26641
:10458C002367E366636706E0C3F10F020749895CA2
:10459C00024AD15401330F2BF6D910BD1004002060
:1045AC00509A000010000020000000205C9A0000CF
:1045BC0008B500230F2B0AD8094AD25CD2B2C3F13A
:1045CC000F010848415C8A4204D10133F2E7002311
:1045DC0013B908BD0123FBE7FFF7B8FFF9E700BFEC
:1045EC00100400205C9A00002DE9F84304460E46A6
:1045FC001546304B00EB400003EBC000826A476A63
:10460C00601C00EB400003EBC00358683844BA420E
:10461C003CD804EB4401274B03EBC103D3F82080B7
:10462C00A8EB070909F1FF339D4204D913449D42BD
:10463C000ED900202FE02A46314604F011FB2F44FE
:10464C0004EB44041B4B03EBC4035F62012022E028
:10465C004A46314604F004FBA7EB080818EB0505A5
:10466C0007D104EB4404134B03EBC4035D6201203C
:10467C0011E0631C03EB43030E4A02EBC3032A460F
:10468C0006EB0901586804F0EBFAEAE7D21B013A91
:10469C00AA4202D20020BDE8F8832A4604F0E0FAD0
:1046AC002F4404EB4404034B03EBC4035F6201206F
:1046BC00F1E700BF10040020064B00EB400203EBB7
:1046CC00C202926A00EB400003EBC003586A801AE6
:1046DC00704700BF10040020034B00E01433034A62
:1046EC009342FBD3704700BFEC8D0000288E000076
:1046FC0004280CD8DFE800F0030D05070900064874
:10470C007047064870470648704706487047064889
:10471C0070470648704700BF709A0000949A0000DA
:10472C00A49A0000B09A0000C09A0000809A000081
:10473C0030B108B504F0A3F820B1037823B108BD5B
:10474C00024870470148FAE70048F8E7D09A0000A1
:10475C0010B50446FCF7E6FE034A0121034802F0BB
:10476C0094FB204604F01AF8D89A0000E48F00005D
:10477C002DE9F04782B000AF05460C46EFF31188E7
:10478C00202383F31288BFF36F8FDFF8C491D9F81D
:10479C000860FFF7ADFF99F81010E94601233B7153
:1047AC0003237B718AB0EC461CF1100221D04FF030
:1047BC00160E5AB17346BEF1040F03DDDFF894A157
:1047CC00CCF814A0082B01DDCCF8185001233B7059
:1047DC0003237B70D2B17346BEF10C0F01DDCCF814
:1047EC001C00102B01DDCCF820100CF1240300214F
:1047FC000AE06FF0004EDCE701F10800384410F8D5
:10480C00080C03F8010B01310129F5D9BEF1150F84
:10481C0050DD16234AB10521397100217971B97126
:10482C000121F9717868CCF8100000216FF30001B8
:10483C006FF341016FF382016FF3C501012060F347
:10484C008811C3F30A0363F353216FF31F51002341
:10485C004148FCF761FFCD461CB1E369C3F3080383
:10486C005BBB3046FFF764FFE94601233B71032332
:10487C007B718AB0EC461CF1100224D04FF0120E62
:10488C0052B17346BEF1040F02DD3449CCF814105A
:10489C00082B01DDCCF8186001233B7003237B70DF
:1048AC00F2B1BEF10C0F01DDCCF81C000CF12003B1
:1048BC00002113E06FF01B03ACE7294A01212648C5
:1048CC0002F0E3FACDE76FF0004ED9E701F10800F2
:1048DC00384410F8080C03F8010B01310129F5D903
:1048EC00BEF1110F31DD12234AB1042139710021BF
:1048FC007971B9710121F9717868CCF81000002137
:10490C006FF300016FF341016FF382016FF3C50187
:10491C00012060F38811C3F30A0363F353216FF38F
:10492C001F5100230C48FCF7F7FECD4621462846C4
:10493C00FFF70EFF88F31188BFF36F8F3046FDF73A
:10494C004FFF0837BD46BDE8F0876FF01B03CBE780
:10495C00340E0020E89A0000E48F0000349B000025
:10496C00109B000038B505460A4B53F8204002E076
:10497C002368984708346B1C064A52F82330A3422C
:10498C0006D96368002BF3D0204603F00FFFF1E744
:10499C0038BD00BF5C9B000010B586B0B023114C35
:1049AC0003FB004400EB400C00EB80000E4B03EBD0
:1049BC0080030E4A0592012204920F2203920022D8
:1049CC000292019200930A4B4FF4A072094901EB39
:1049DC00CC11204600F0B0F9637B23F00403637321
:1049EC0006B010BDB80A0020340E00204C9B00000D
:1049FC00FB870000001A002008B553EA020102D11F
:104A0C0000F0E8FC08BD0249183000F0ADFEF9E7F3
:104A1C00898A000010B586B0184C14E0636A0593BF
:104A2C00236A0493E3690393A36902936369019373
:104A3C0023690093E368A2686168206800F07CF940
:104A4C0023685C6530340E4B9C42E7D300F0D2FBFC
:104A5C000A4C00E030340A4B9C420BD2A26AE36A47
:104A6C00B3F1FF3F08BFB2F1FF3FF3D02068FFF76F
:104A7C00C3FFEFE700F0D6FB06B010BD608F00005F
:104A8C00608F000008B50B4B01221A700320FFF752
:104A9C0069FFFDF70BFA03F0A9FE0420FFF762FF94
:104AAC00FFF7B8FFFBF7C0FC034A137B23F00103AD
:104ABC00137308BD750E0020680B002008B5014665
:104ACC00014A0248FDF77EFF914A0000680B002066
:104ADC0008B50348034A121A002103F07FFE08BDF3
:104AEC00A8050020780E002010B50446FFF754FFEF
:104AFC00B0230B4903FB04110A4A04EB840302EBB9
:104B0C008303D9601C7404EB4411074B03EB811332
:104B1C0003F5046304EB840402EB8402536010BDC0
:104B2C00B80A0020340E0020C011002070B586B0E9
:104B3C0000F0B0FB104D114B5D61114B059301233F
:104B4C000493002403940294019400940D4B4FF4AD
:104B5C0080620D49284600F0EFF806466B7B23F087
:104B6C0004036B73284603F021FF2046FFF7BCFFBC
:104B7C00304606B070BD00BF680B0020340E00201C
:104B8C00549B0000914A0000801B002008B50020B7
:104B9C00FFF7E8FE1E4B83F308881E4C636943F451
:104BAC0000736361E02384F822300025E5772576D5
:104BBC006576A57684F82050636A43F4E02363623B
:104BCC0084F82350FDF788FDFDF71CFF4FF0FF33F1
:104BDC00A362E362FEF708F8FDF744FFFCF70AFC5A
:104BEC000D4B01245C731C73C3F89450C3F898509C
:104BFC00C3F8A050094A9360FFF76EFD2046FFF7FB
:104C0C00B1FE0220FFF7AEFEFFF790FFFFF756FF55
:104C1C00001A002000ED00E0180C0020340E0020DB
:104C2C00F8B50446EFF31187202383F31288BFF302
:104C3C006F8F0568A84212D02E1E18BF012685B9A9
:104C4C0006BBA368E268934224D001221344A360FC
:104C5C0000230BBB87F31188BFF36F8FF8BD0025C2
:104C6C00EAE76A682B6813605A6000232B606B605C
:104C7C006A7B22F002026A73AB6005F1180003F044
:104C8C0095FFDDE70023C5F8AC30284603F08EFE17
:104C9C000123DEE70022D9E73946024800F07EFA0C
:104CAC00DCE700BF580E002010B582B0EFF3118185
:104CBC00202484F31288BFF36F8F846844B1013CC5
:104CCC00846081F31188BFF36F8F002002B010BD98
:104CDC0053EA020406D0009201930246054800F004
:104CEC0041FAF3E781F31188BFF36F8F6FF00F0078
:104CFC00ECE700BF580E002008B553EA020102D1C0
:104D0C0000F068FB08BD0249183000F02DFDF9E7F2
:104D1C00898A000010B5044640B11F2204F17400CA
:104D2C0003F0B4FF002084F8930010BD014B9C6885
:104D3C00F3E700BF340E00202DE9F04F85B0044698
:104D4C000F4615461E46DDF838A0DDF83C90DDF820
:104D5C004080DDF84CB000F158038365C365129BAD
:104D6C000422119903F08DFD2A463946204603F0A2
:104D7C005AFD0546CDF80880CDF80490CDF800A07A
:104D8C003346024639462046FDF7D6FD00236365BF
:104D9C002666C4F864A0C4F86890C4F86C80EFF37D
:104DAC001182202383F31288BFF36F8F124B196A81
:104DBC0021671C6282F31188BFF36F8FBBF1000F68
:104DCC0013D01F22594604F1740003F05FFF002337
:104DDC0084F89330084B9B685BB1D3F8A030C4F8CF
:104DEC00A030284605B0BDE8F08F002384F874305D
:104DFC00F0E7C4F8A030F4E7340E00200A4A9368B8
:104E0C00C3F8A8006FF00A01C3F8AC1007494B684F
:104E1C0043F080534B60002383F31188BFF36F8FF3
:104E2C009368D3F8AC007047340E002000ED00E01E
:104E3C00427B90F90D30002B04DB12F01F0F01D1D7
:104E4C00816901B1704710B562F07F024273264A46
:104E5C0052F8183F93420ED10B460CE05A68426050
:104E6C000360106058601FE01A461F4CE469A242B0
:104E7C0010D01B6883B17BB190F90EC093F90E2052
:104E8C009445F1D0A2EB0C02002AE7DC1A46002B69
:104E9C00EBD1EFE70B46EDE7134BDA6903F11801A1
:104EAC00016042601060D8610F4B53F8184F9C4260
:104EBC000ED06CB10C4B9B685A7B12F01F0F0AD1B1
:104ECC00DA897F2A07D9A2692AB9074A536109E00E
:104EDC00054BDC68EEE7A34202D0204600F08AFBCB
:104EEC00014B5C6110BD00BF340E002010B5437B3C
:104EFC0090F90D20002A14DB154B9A6853F8184FC3
:104F0C009C4219D0C4B1824219D0537B13F01F0FAD
:104F1C0015D1D3897F2B12D9A36983B90C4B5A6154
:104F2C0014E003F07F0343734268036813605A6014
:104F3C00002303604360DFE7054BDC68E3E7A24234
:104F4C0002D0204600F056FB014B5C6110BD00BF47
:104F5C00340E00202DE9F84305460C46454B9E685F
:104F6C00737B13F0600F28D013F0200F2AD0082782
:104F7C001F4222D13B43737313F0800F24D1082FAF
:104F8C002DD04FF000093B4B53F8188F98454BD060
:104F9C00B8F1000F48D0374B9B68434502D04046D0
:104FAC0000F028FB334BC3F81480102F05D030468B
:104FBC0000F080FBB9F1000F3AD184F31188BFF3F4
:104FCC006F8F50E01027D3E703F07F037373726881
:104FDC00336813605A60002333607360CFE7B368A3
:104FEC005BB17268336813605A600023336073607E
:104FFC00727B22F002027273B360304603F0A2FCA3
:10500C0006F1580003F0A3FC1A4B9B689E4202D099
:10501C004FF00009B7E7EFF3058313B94FF0000920
:10502C00B1E74FF00109AEE7124BD3F80C80B2E7B1
:10503C00114B01225A731A730022C3F89420C3F83F
:10504C009820C3F8A0200B4A9360B6E7EFF31184C5
:10505C00202383F31288BFF36F8F03F0D3FB84F309
:10506C001188BFF36F8F6B7B13F0600FEED1BDE82F
:10507C00F88300BF340E0020180C0020B3F1FF3F62
:10508C0008BFB2F1FF3F00D1704708B50249183094
:10509C0000F06AFB08BD00BF898A000010B5437B95
:1050AC0090F90D20002A0ADB437B63F07F034373E6
:1050BC002B4A52F8183F934219D1002317E003F002
:1050CC007F0343734268036813605A6000230360D4
:1050DC004360E9E75A6842600360106058601EE064
:1050EC001A461F49C9698A420FD01B687BB173B13C
:1050FC0090F90E1093F90E209142F1D0521A002A19
:10510C00E8DC1A46002BECD1F0E70023EEE7144B59
:10511C00DA6903F11801016042601060D861104B2C
:10512C009A6853F8184F9C420ED06CB182420ED044
:10513C00537B13F01F0F0AD1D3897F2B07D9A36997
:10514C002BB9074B5A6109E0054BDC68EEE7A2422C
:10515C0002D0204600F04EFA014B5C6110BD00BF3E
:10516C00340E002010B50C4611460A4882680A4BD2
:10517C001A60EFF31183202383F31288BFF36F8F30
:10518C00DDE90223806803F005FC2046FFF736FEBC
:10519C0010BD00BF340E0020580E002008B50B4681
:1051AC0059B9EFF3058242B9064A506992689042A8
:1051BC0003D00846FFF722FE03E083F31188BFF308
:1051CC006F8F08BD340E002008B5034650B9EFF3BD
:1051DC0005823AB9064A51699268914202D0FFF7AA
:1051EC000DFE03E083F31188BFF36F8F08BD00BF82
:1051FC00340E00200023EFF31181202282F3128859
:10520C00BFF36F8F09E0064B9A68D37B013BD373D6
:10521C0081F31188BFF36F8F0123002BF3D07047FC
:10522C00340E002038B50023EFF31185202282F3D1
:10523C001288BFF36F8F0EE0154BDC6817E0A242AB
:10524C0002D0204600F0D6F9114B5C6185F3118831
:10525C00BFF36F8F0123BBB90D4B9A68D17B013122
:10526C00D17353F8184F9C42E6D0002CE4D0537BFA
:10527C0013F01F0FE3D1D3897F2BE0D9A369002B47
:10528C00DDD1034B5A61E1E703F023FC38BD00BFCD
:10529C00340E002008B5024803F026FC08BD00BF00
:1052AC00480E002038B5EFF31184202383F31288C5
:1052BC00BFF36F8F224B9A68DB699A4205D0136853
:1052CC00516812680A60516006E00023F8E71C4A36
:1052DC00D269934212D01B6893B1194A906890F925
:1052EC000E1093F90E209142F1D0521A002AEEDDE5
:1052FC005A6842600360106058600AE00023EBE7D4
:10530C000F4B9A68D96903F11800106051600A605C
:10531C00DA610B4B53F8185F9D420DD065B1084B09
:10532C009B689D4202D0284600F064F9044B5D61F5
:10533C002046FFF763FD38BD014BDD68EFE700BF8A
:10534C00340E00202DE9F04150EA010333D004461D
:10535C000D466FF001031B1A4FF0FF3262EB010296
:10536C00012B72F100022ADB6FF00106361AEFF303
:10537C001188202383F31288BFF36F8F124FB86804
:10538C00124B1860FFF7B2FDB86822462B46104945
:10539C00183000F0E9F9BA68537B43F004035373F7
:1053AC004046FFF72BFD03F029FC301A002800DCE7
:1053BC000020BDE8F081FFF775FF0020F9E703F04E
:1053CC001DFC0619D3E700BF340E0020580E002038
:1053DC00898A000038B50446183003F0E7FBEFF378
:1053EC001185202383F31288BFF36F8F637B13F037
:1053FC00040F04D185F31188BFF36F8F38BD23F0F0
:10540C00040363732046FFF713FDEFF3058323B109
:10541C0085F31188BFF36F8FF0E729460148FFF73A
:10542C00BDFEEBE7580E0020014B9868704700BF9B
:10543C00340E00202DE9F041EFF31186202383F385
:10544C001288BFF36F8F037B13F0010F15D1044645
:10545C00457B15F0080F1ED1B04600F1580703F03C
:10546C003DFA30B345F020056573EFF30583BBB10E
:10547C0031462046FFF76EFD0BE086F31188BFF333
:10548C006F8F002383F31188BFF36F8F04231846AB
:10549C0002DFBDE8F08186F31188BFF36F8FF8E768
:1054AC003946374B986803F01BFA3046FFF7A6FCD9
:1054BC00EFE745F00803637313F0800F33D1A36853
:1054CC005BB16268236813605A60002323606360D9
:1054DC00627B22F002026273A36004F1180003F0F5
:1054EC0065FB384603F033FA254B9A68944227D073
:1054FC000027234B53F8185F9D4228D03DB3AA4296
:10550C0002D0284600F076F81D4B5D61204600F075
:10551C00D1F8FFB91A4B9B689C4229D088F31188AB
:10552C00BFF36F8FB5E705F07F0545F00805657390
:10553C006268236813605A60002323606360BEE7CF
:10554C00EFF305830BB90027D3E70127D1E70C4B09
:10555C00DD68D4E70B4B01225A731A730022C3F88F
:10556C009420C3F89820C3F8A020054A9360D1E793
:10557C00EFF30583002BD1D13046FFF73FFC88E7D2
:10558C00340E0020180C0020044BC01AC010044B21
:10559C0003FB00F0034B01221A547047C80C002087
:1055AC00ABAAAAAA5C0E0020C3897F2B11D80E4B84
:1055BC001B687BB190F90E200C4B1B689A420CDBDC
:1055CC00437B13F01F0F0AD1094B984209D00123DA
:1055DC0000E0002303F0010070470023FAE70023EA
:1055EC00F8E70023F6E700BF640E0020600E0020F1
:1055FC00B80A002070B505460D4B1E7C06EB460321
:10560C000C4C04EBC304204603F0D0FA0A4B0022E6
:10561C009A552846FFF7C8FF00B970BD074B1A68AA
:10562C00013AD3170649204600F09EF8F5E700BF73
:10563C00340E0020C80C00205C0E0020640E0020EC
:10564C009555000038B5EFF31185202383F31288AC
:10565C00BFF36F8F144B9C68144B1B68A34217D07D
:10566C00124B00221A60104B1B7C114AD35C53B1B5
:10567C002046FFF799FF30B1637B13F01F0F0FD05B
:10568C002046FFF7B7FF85F31188BFF36F8F38BD46
:10569C002046FFF7AFFF85F31188BFF36F8FF6E756
:1056AC002046FFF7FBFCEBE7340E0020580E0020E1
:1056BC005C0E0020EFF31181202383F31288BFF3DB
:1056CC006F8F0A4B1B6A834204D11A6F074B1A6205
:1056DC0007E0134613B11A6F8242FAD10BB1026F75
:1056EC001A6781F31188BFF36F8F7047340E002057
:1056FC0008B50648064A121A064903F073F806481C
:10570C00064A121A064903F06DF808BDC0040020C1
:10571C00A4050020909C0000B8040020C0040020C8
:10572C00889C0000034B1868984200D070470020FA
:10573C00FCE700BF4805002030B1044A5268904293
:10574C0001D0006870470020704700BF480500205A
:10575C0008B5044B1B680BB1002008BDFEF748FAD6
:10576C00FBE700BF680E0020B3F1FF3F08BFB2F1AA
:10577C00FF3F77D02DE9F047044692461D468160E5
:10578C000023EFF31187202282F31288BFF36F8F6F
:10579C0026E01AF1010845F10009FFF7D9FF18EBD3
:1057AC00000349EBE070236160613BE0521A66EB49
:1057BC000303026143614368636020601C604460C2
:1057CC0005E0294B5A682360626014605C60FFF747
:1057DC00A9FF84423AD087F31188BFF36F8F01235E
:1057EC00002B3DD153466FF00101B1EB0A014FF094
:1057FC00FF3060EB0502002ACBDB1C4A11685268B3
:10580C005B1842EB05026FF00101C91A60EB020351
:10581C0008461A46012973F1000301DA012000221F
:10582C0020616261FFF77EFF0028CAD002694669D9
:10583C0021696369914273EB060EB7DB891A63EB3E
:10584C00060321616361FFF777FFEDE7084B1B68E7
:10585C00002BC0D103F08DF90021FEF78FF9BAE7C8
:10586C00BDE8F087704700BF48050020E00C002021
:10587C00680E002070B5EFF31186202383F3128895
:10588C00BFF36F8F2A4B1860FFF74CFF044623E0E1
:10589C00284A136851685B1941EBE571136051603C
:1058AC0000220023C4E90423204603F04BF986F3BD
:1058BC001188BFF36F8FA36820469847EFF31186CA
:1058CC00202383F31288BFF36F8F194A13685B1B75
:1058DC001360FFF727FF04463CB125696169144B3F
:1058EC001A68D317AA428B41D2DA44B12369626990
:1058FC000F4909685B1A62EBE172236162610D4A20
:10590C000B4D2868136851681B1841EBE07113604C
:10591C00516000242C6003F02CF92146FEF72EF97F
:10592C0086F31188BFF36F8FFFF78CFE70BD00BF3D
:10593C00680E0020E00C002010B50022EFF311845B
:10594C00202383F31288BFF36F8F134611460CE0AC
:10595C00FFF7FEFE074A13685168C31841EBE0716C
:10596C0084F31188BFF36F8F0122002AF0D0184600
:10597C0010BD00BFE00C0020F8B5EFF3118320221E
:10598C0082F31288BFF36F8F026822B183F3118800
:10599C00BFF36F8FF8BD04461D46826AC36A52EA94
:1059AC00030105D0B3F1FF3F08BFB2F1FF3F27D190
:1059BC00236B01332363236A6BB185F31188BFF327
:1059CC006F8F236A20469847EFF31185202383F3CA
:1059DC001288BFF36F8F04F11803A469A3423FD060
:1059EC00002C3DD0204602F0FCFF0023C4F8AC3064
:1059FC0085F31188BFF36F8F204602F0D7FFC9E7FC
:105A0C0016461F46012A73F1000301DA012600270E
:105A1C00013E47F1FF3703F0F5F8013041F1000189
:105A2C00801947EB0101012871F1000108DA6FF0D0
:105A3C0001024FF0FF330D492046FFF795FEB7E703
:105A4C0003F0E0F8013041F10001801947EB01034C
:105A5C006FF00102121A4FF0FF3161EB0303EAE71A
:105A6C0085F31188BFF36F8F94E700BF8559000051
:105A7C00F8B51D46EFF31187202383F31288BFF38B
:105A8C006F8FB5F1FF3F08BFB2F1FF3F1FD0064645
:105A9C00144629466FF00102121B4FF0FF3262EBE5
:105AAC000502002A18DB304603F080F8DDE90623F6
:105ABC00C6E90A230023336322462B460B493046A2
:105ACC00FFF752FE87F31188BFF36F8FF8BD87F392
